{
  "contractName": "DiceResultsOracle",
  "abi": [
    {
      "constant": false,
      "inputs": [],
      "name": "triggerUpdate",
      "outputs": [],
      "payable": false,
      "stateMutability": "nonpayable",
      "type": "function"
    },
    {
      "constant": true,
      "inputs": [],
      "name": "owner",
      "outputs": [
        {
          "name": "",
          "type": "address"
        }
      ],
      "payable": false,
      "stateMutability": "view",
      "type": "function"
    },
    {
      "constant": true,
      "inputs": [],
      "name": "getResult",
      "outputs": [
        {
          "name": "",
          "type": "uint8"
        },
        {
          "name": "",
          "type": "uint8"
        }
      ],
      "payable": false,
      "stateMutability": "view",
      "type": "function"
    },
    {
      "constant": false,
      "inputs": [
        {
          "name": "dieOne",
          "type": "uint8"
        },
        {
          "name": "dieTwo",
          "type": "uint8"
        }
      ],
      "name": "setResult",
      "outputs": [],
      "payable": false,
      "stateMutability": "nonpayable",
      "type": "function"
    },
    {
      "inputs": [],
      "payable": false,
      "stateMutability": "nonpayable",
      "type": "constructor"
    },
    {
      "anonymous": false,
      "inputs": [],
      "name": "CallbackTrigger",
      "type": "event"
    },
    {
      "anonymous": false,
      "inputs": [
        {
          "indexed": false,
          "name": "resulter",
          "type": "address"
        },
        {
          "indexed": false,
          "name": "die1",
          "type": "uint8"
        },
        {
          "indexed": false,
          "name": "die2",
          "type": "uint8"
        }
      ],
      "name": "GameResulted",
      "type": "event"
    }
  ],
  "bytecode": "0x6060604052341561000f57600080fd5b33600060026101000a81548173ffffffffffffffffffffffffffffffffffffffff021916908373ffffffffffffffffffffffffffffffffffffffff1602179055506103418061005f6000396000f300606060405260043610610062576000357c0100000000000000000000000000000000000000000000000000000000900463ffffffff16806343f7b7aa146100675780638da5cb5b1461007c578063de292789146100d1578063f6c9fd5e1461010d575b600080fd5b341561007257600080fd5b61007a61013f565b005b341561008757600080fd5b61008f61016d565b604051808273ffffffffffffffffffffffffffffffffffffffff1673ffffffffffffffffffffffffffffffffffffffff16815260200191505060405180910390f35b34156100dc57600080fd5b6100e4610193565b604051808360ff1660ff1681526020018260ff1660ff1681526020019250505060405180910390f35b341561011857600080fd5b61013d600480803560ff1690602001909190803560ff169060200190919050506101bd565b005b7fa8d0c3c967a0a92a841be8c52c3071acd07c76b46e1f3676d6a6b1376b96836760405160405180910390a1565b600060029054906101000a900473ffffffffffffffffffffffffffffffffffffffff1681565b6000806000809054906101000a900460ff16600060019054906101000a900460ff16915091509091565b818160018260ff16101580156101d7575060068260ff1611155b15156101df57fe5b60018160ff16101580156101f7575060068160ff1611155b15156101ff57fe5b600060029054906101000a900473ffffffffffffffffffffffffffffffffffffffff1673ffffffffffffffffffffffffffffffffffffffff163373ffffffffffffffffffffffffffffffffffffffff1614151561025b57600080fd5b836000806101000a81548160ff021916908360ff16021790555082600060016101000a81548160ff021916908360ff1602179055507fcc20b4494681362b525b502ffe4c6c6907ded8196c579dd418c3d4d43b4a7c3a338585604051808473ffffffffffffffffffffffffffffffffffffffff1673ffffffffffffffffffffffffffffffffffffffff1681526020018360ff1660ff1681526020018260ff1660ff168152602001935050505060405180910390a1505050505600a165627a7a72305820d16e945e329d57858490dffd808ae5a67711fab96fa4eb3f80ce1a94f690b1610029",
  "source": "pragma solidity ^0.4.17;\n\n\n/**\n * DiceResultsOracle - A basic Oracle example\n **/\ncontract DiceResultsOracle {\n\n    uint8 private dieOneOutcome;\n\n    uint8 private dieTwoOutcome;\n\n    address public owner;\n\n    event CallbackTrigger();\n\n    event GameResulted(address resulter, uint8 die1, uint8 die2);\n\n    function DiceResultsOracle() public {\n        owner = msg.sender;\n    }\n\n    function triggerUpdate() public {\n        CallbackTrigger();\n    }\n\n    function setResult(uint8 dieOne, uint8 dieTwo)\n    validateDice(dieOne, dieTwo)\n    public {\n        // ignore if its not the Oracle i.e. the creator\n        require(msg.sender == owner);\n\n        // Result the contract\n        dieOneOutcome = dieOne;\n        dieTwoOutcome = dieTwo;\n\n        // Fire notification event\n        GameResulted(msg.sender, dieOne, dieTwo);\n    }\n\n    function getResult() constant public returns (uint8, uint8) {\n        return (dieOneOutcome, dieTwoOutcome);\n    }\n\n    /*********************\n     * Private modifiers *\n     *********************/\n\n    modifier validateDice(uint8 dieOne, uint8 dieTwo) {\n        assert(dieOne >= 1 && dieOne <= 6);\n        assert(dieTwo >= 1 && dieTwo <= 6);\n        _;\n    }\n\n}\n",
  "sourcePath": "/Users/jamesmorgan/Dropbox/workspace-js/ethereum-dice-oracle-example/contracts/DiceResultsOracle.sol",
  "compiler": {
    "name": "solc",
    "version": "0.4.18+commit.9cf6e910.Emscripten.clang"
  },
  "schemaVersion": "1.0.1",
  "updatedAt": "2017-11-13T09:35:42.806Z"
}